:10000000F8FF022099010000810900003909000071
:1000100039090000390900003909000039090000D8
:100020003909000039090000390900008109000080
:100030008109000039090000011C0000051C0000B6
:100040008109000081090000810900008109000088
:100050008109000081090000810900008109000078
:100060008109000081090000810900008109000068
:100070008109000081090000810900008109000058
:100080008109000081090000810900008109000048
:100090008109000081090000810900008109000038
:1000A0008109000081090000810900008109000028
:1000B0008109000081090000810900008109000018
:1000C0008109000081090000810900008109000008
:1000D00081090000810900008109000081090000F8
:1000E00081090000810900008109000081090000E8
:1000F00081090000810900008109000081090000D8
:1001000081090000810900008109000081090000C7
:1001100081090000110E0000810900008109000022
:1001200081090000810900008109000081090000A7
:100130008109000081090000810900008109000097
:100140008109000081090000810900008109000087
:100150008109000081090000810900008109000077
:100160008109000081090000810900008109000067
:100170008109000081090000810900008109000057
:100180008109000081090000810900008109000047
:100190008109000081090000584B4CF2205210B533
:1001A0001A804DF628121A8000BF00BF00F0ECFB49
:1001B000534B4FF030621A60524A9A60524ADA60EA
:1001C000524B4FF470021A60514A136813F4807353
:1001D00004D150490B604FF4A85313604E4B1A786A
:1001E000110703D51A7842F008021A704B4B4C499C
:1001F0002A221A704B4A4C4B8B4204D252F8040FFD
:1002000043F8040BF8E7494B494900228B4202D2DC
:1002100043F8042BFAE74749474A002352F82300E2
:1002200041F823000133662BF8D1444B444A802126
:1002300003F8011B9342FBD1424B3E4A1A60424BEA
:100240008A221A70A3F5805324225A70A0221A70B1
:100250009A799207FCD59A79D406FCD43B4A9379D3
:1002600003F00C03082B394BF9D103221A714622F3
:100270005A719A799006FCD5344A9179334B4906E4
:10028000FBD5334A4FF08271116009215160202261
:100290001A709A7902F00C020C2AFAD12D4B2E4AD0
:1002A0001A602E4B2E4A1A6000225A60072243F829
:1002B000042C2C4AC3F80C2D62B600F05BFC154BE5
:1002C0001B68DA0705D5284800F0DEFB274B284AD3
:1002D0001A60284B1B785B0609D5244C244B2268F6
:1002E0009A4204D1204800F0CFFB0023236000F0A5
:1002F00051FB02F03DFB00F043FAFEE70E20054003
:1003000030800440823F04000100002B88ED00E0B3
:1003100010D0034014D0034002D0074000E0074053
:100320006811FF1F6C6E0000F806FF1F6811FF1FA9
:100330002813FF1F0002FF1F0000000000E400E080
:1003400056E400E008ED00E00050064000400640A2
:100350004480044004800440C010050014E000E024
:10036000BFD4010000002020EE2481621CE0034085
:10037000A5C3945A00F00740FFFFFFFFFFFFFFFFF8
:10038000FFFFFFFFFFFFFFFFFFFFFFFFFFFFFFFF7D
:10039000FFFFFFFFFFFFFFFFFFFFFFFFFFFFFFFF6D
:1003A000FFFFFFFFFFFFFFFFFFFFFFFFFFFFFFFF5D
:1003B000FFFFFFFFFFFFFFFFFFFFFFFFFFFFFFFF4D
:1003C000FFFFFFFFFFFFFFFFFFFFFFFFFFFFFFFF3D
:1003D000FFFFFFFFFFFFFFFFFFFFFFFFFFFFFFFF2D
:1003E000FFFFFFFFFFFFFFFFFFFFFFFFFFFFFFFF1D
:1003F000FFFFFFFFFFFFFFFFFFFFFFFFFFFFFFFF0D
:10040000FFFFFFFFFFFFFFFFFFFFFFFFDEF9FFFF23
:1004100010B5054C237833B9044B13B10448AFF33E
:1004200000800123237010BD6811FF1F0000000031
:10043000686E0000084B10B51BB108490848AFF3BF
:1004400000800848036803B910BD074B002BFBD0A0
:10045000BDE81040184700BF000000006C11FF1FEE
:10046000686E00006811FF1F00000000F0B518481A
:10047000184A0468184D194F83B040F2EE261378DD
:100480003BB12B78DB0704D5036839685B1A0E2B68
:1004900006D8036811781B1BB1B1B3F5FA6FEED91A
:1004A0004FF4FA6000F018FB02220D4901A800F099
:1004B0006FF901A8022100F049F8642802D1094B24
:1004C00001221A7003B0F0BDB342D8D9E8E700BFEB
:1004D000AC11FF1F9012FF1FA812FF1F2013FF1F58
:1004E0001C6900008411FF1F134B1B7803B9704770
:1004F00010B500F0E7F8114C212000F0FDF822784B
:100500008242034605D002460D490E48237000F092
:1005100029F900F0D7F8222000F0EEF82278074CF5
:100520008242034607D02370024607490548BDE8CA
:10053000104000F017B910BD8411FF1FF806FF1F0F
:10054000206900000007FF1F346900002DE9F84F03
:100550000D46002867D008294DD8DFF8ECE00023CD
:100560008EF8003000293ED01C460246167812F85C
:10057000017FDFF8D4C00133D9B2B74208BF0124EC
:100580008D428EF80010F1D8002C3CD123468CF817
:1005900000402146044614F8016B0133DAB23A2ECA
:1005A00028BF012195428EF80020F4D899BB082D70
:1005B00024D005F1FF39DFF894B0DFF894801E4FA6
:1005C0000C4650FA89F9461E4FF0010A16F8010F41
:1005D0000BF8010F022108F801AF07F8014F01F0F5
:1005E000CBFB4E45F2D1154B01221A70144B1D70F6
:1005F0006420BDE8F88F134B67221A70104B1D70F2
:100600006420BDE8F88F0F4B68221A700C4B1D70E8
:100610006420BDE8F88F0B4B69221A70084B1D70DF
:100620006420BDE8F88F074B66221A70044B1D70DA
:100630006420BDE8F88F00BF9F11FF1FA811FF1FA6
:100640009011FF1FA911FF1F8511FF1F8711FF1FA9
:100650009311FF1F38B5164D2B5C032B04461FD09A
:10066000022B04BF01232B54124A134B105D187048
:1006700001F080FB295D114B0D4D1870884212D09E
:100680000F4A135D0133DBB2052B135500D038BD83
:1006900001290CBF032302232B550023135538BD1A
:1006A00000232B54E0E7064B00221A5538BD00BF4B
:1006B0009411FF1F8811FF1F9D11FF1F9C11FF1F29
:1006C000A011FF1F38B5094B1B7873B1084D094CB9
:1006D0002B780020207043B1FFF7BCFF20782B78E7
:1006E0000130C0B283422070F6D838BDA811FF1F78
:1006F0009011FF1F8511FF1F134BF0B51E78D6B167
:100700001249DFF84CE00B78002583428EF8005048
:1007100014D001278EF80070022200E01A4611F86A
:10072000014F531C8442DBB207D0092B17463546D4
:10073000F4D18EF800206A20F0BD0DB90020F0BD84
:100740008EF80070FAE700BFA811FF1F8811FF1F85
:100750008511FF1F10B5036814465B689847204653
:1007600010BD00BF0EB400B582B003AA52F8041B3E
:10077000019202F059FF02B05DF804EB03B070473C
:1007800008B5FFF773FEFFF7AFFE01F0A1F9FAE736
:1007900001B441EA000313F003036FD1403A41D39F
:1007A00051F8043B40F8043B51F8043B40F8043B4B
:1007B00051F8043B40F8043B51F8043B40F8043B3B
:1007C00051F8043B40F8043B51F8043B40F8043B2B
:1007D00051F8043B40F8043B51F8043B40F8043B1B
:1007E00051F8043B40F8043B51F8043B40F8043B0B
:1007F00051F8043B40F8043B51F8043B40F8043BFB
:1008000051F8043B40F8043B51F8043B40F8043BEA
:1008100051F8043B40F8043B51F8043B40F8043BDA
:10082000403ABDD2303211D351F8043B40F8043B7A
:1008300051F8043B40F8043B51F8043B40F8043BBA
:1008400051F8043B40F8043B103AEDD20C3205D38A
:1008500051F8043B40F8043B043AF9D204320AD080
:10086000D2071CBF11F8013B00F8013B03D30B7802
:1008700003704B78437001BC704700BF0C2A4AD309
:1008800010F0030311D0C3F10403D21ADB071CBF1D
:1008900011F8013B00F8013B07D311F8013B00F8C8
:1008A000013B11F8013B00F8013B11F003033FF459
:1008B00075AF30B4043AC91AC3F1040C51F8044BB3
:1008C000022B19D0032B0BD0240A51F8043B1D0630
:1008D00044EA050440F8044B1C46043AF4D216E0FE
:1008E000240E51F8043B1D0244EA050440F8044B71
:1008F0001C46043AF4D20AE0240C51F8043B1D04CF
:1009000044EA050440F8044B1C46043AF4D204328D
:10091000B1EB0C0130BC043AA0D3013A11F8013B11
:1009200000F8013BF9D20B7803704B7843708B7859
:10093000837001BC704700BF08B5104C08E0236805
:1009400059050DD423681A050FD42368DB0411D48C
:1009500023685803F3D500F05BFA23685905F1D5F5
:1009600000F00EF823681A05EFD500F009F82368A7
:10097000DB04EDD500F004F8EAE700BF3480044062
:1009800008B5FFF7D9FF00BF014B10221A8070474E
:1009900000200540704700BF094908B50B6830B119
:1009A0006A461844A2F50052904202D208601846E6
:1009B00008BD01F0D7FF0C2303604FF0FF3008BDE6
:1009C000FC06FF1FF0B44D1E2E46002400E001344B
:1009D000B0FBF2F302FB1300092800F130078ABFD5
:1009E0003730F8B2C0B206F8010F1846002BEED12E
:1009F0000A1953704CB1107815F8016F2870013343
:100A0000E01A834202F80169F5DB0846F0BC704742
:100A10001C4A02EBC00301295B6811D004291BD0DA
:100A200052F83000002280F8802229B1022920D01B
:100A3000032922D01A6070474FF480721A60704701
:100A400052F830004FF4A27280F880121A601A68CF
:100A500022F020021A60704752F830104FF4A27250
:100A6000012081F880021A601A6842F020021A60A0
:100A7000704740F203121A6070474FF481721A6097
:100A8000704700BF4869000030B4054B054D064C67
:100A9000002210211A602A602060196030BC704763
:100AA00014D0034004D0034000D00340704700BF7F
:100AB0003F2806D8044B53F8303093F80002C0B2F8
:100AC00070470020704700BF486900003F2801D8E8
:100AD000FFF79EBF704700BF2DE9F843054672B689
:100AE000204F214B214A1B683C68126862B65201B4
:100AF00002D5322B88BF013495B3C3F5EA331C4EBF
:100B0000DFF86490DFF86480BF334FF47A72A6FB9D
:100B1000031302FB04F404EB931472B6D9F800102B
:100B20003A68D8F800E062B6C1F5EA33BF33A6FBF5
:100B300003031EF0806FC4EB93134FF47A7002D05E
:100B4000322988BF013200FB0233B3F57A7F04D328
:100B5000013D05D004F57A74DFE700F0B9FFDCE76A
:100B6000BDE8F883AC11FF1F18E000E004ED00E0E1
:100B700089888888F8B53F4B3F49DFF81CC13F4E54
:100B80003F4ADFF818E13F4D3F4C404F4FF00060C7
:100B900018604FF0805018604FF0005018604FF010
:100BA000804018604FF00040186000200860282343
:100BB0004EF6FF71CCF80010CEF8003033600EF521
:100BC000012E13602B60236005F500253B6004F5C2
:100BD0000024B36207F50027936206F5012602F5AB
:100BE00001220EF1100E05F6E87504F6E87407F51B
:100BF0007F67103220362B602360CEF800303B60D8
:100C000013603360224EBB61936109223260A7F505
:100C1000002706F58056203F083638603160BB60FB
:100C2000F36047F8042C06F5FD2607F5FE2706F2CB
:100C3000FC76043730603960B360FB6046F8042C02
:100C40000836C7F8FC0F06F6FC76124831602B60B8
:100C50002360026000F0DEFFFFF728FF1420FFF79B
:100C60003BFF00F00FFD4FF48C70BDE8F840FFF73C
:100C700033BF00BF04E100E0048003401480034060
:100C80001C800340248003402C80034034800340B8
:100C90000080034000900B40088003400C8003401C
:100CA000431E032B14D872B60A4951F8230068B1C9
:100CB00070B4094C058834F81320466841F8236065
:100CC000521B24F8132062B670BC704762B670479E
:100CD000002070470812FF1F1013FF1F0138032860
:100CE0000BD872B6074B53F8203043B100205B6835
:100CF0000130002BFBD162B67047002070471846C8
:100D0000F9E700BF5C12FF1FF0B472B61A491B4E20
:100D1000012311F8014B194F9A00240742F00105F5
:100D200005D556F8324064B156F83520BAB10133D2
:100D3000052BEED162B6124B00221A70F0BC00F007
:100D400037BD0F4C0F4D217807EB431308300139A5
:100D50005860217047F8325062B6F0BC7047084ABC
:100D60000949137807EBC5040830013B6060137034
:100D700047F8351062B6F0E7706B00000000FF1F07
:100D80008512FF1F88004000C8004000431E032B4F
:100D90001DD81B4A400140F0100030B4104472B618
:100DA000184CE25C032A1BD8DFE802F00212151788
:100DB00003220D88E25410F0080F14BFC8238823C3
:100DC00043EA054308314160036062B630BC7047B6
:100DD00008300222EDE70522EBE708300422E8E7BD
:100DE000094A52F8230038B1084A52F823004160FA
:100DF00042F8231062B6E9E742F82310034AF7E706
:100E00000000FF1F9412FF1F5C12FF1F6C12FF1FD8
:100E10002DE9F04FDFF814B3DFF814A387B044E0F6
:100E2000AD4F4FEA930807EBC809013ED9F80420FB
:100E300003F00803F6B2A2F1080003F0FF04002B50
:100E400040F0038157F838301B0C99B222F8081C87
:100E5000002B00F0F180A14B22F8064C42F8044C24
:100E600053F82620002A00F06C819D4D55F826305D
:100E700058609C4C45F8260034F81630194424F884
:100E8000161000F075FC002800F05481964A974B2C
:100E900019F0080F00F1080018BF1346C9F8040044
:100EA00047F8383008238BF800309BF80040E4B254
:100EB00060071BD58E4B1B78ABB18E490A7802F0C8
:100EC000FF032AB1013BDBB20B70002B00F0B583AE
:100ED00089490A7802F0FF032AB1013BDBB20B70AB
:100EE000002B00F0F68004238BF8003004F0080398
:100EF00003F0FF02002B00F0D5809AF80030DBB23F
:100F00001E098DD19C08744F57F8342007EBC4019B
:100F1000C2F38302013A49680C2A7ED8DFE802F066
:100F200081817D7D7D7D7D7D427D7D7D07000868A1
:100F3000724B734D01936C4B4A68724E47F83430D4
:100F400081B240F281646D4B6A602860002201200A
:100F5000A1423A611A60BA61307000F2F680B1F5D0
:100F6000D06F80F0E882B1F5817F00F0D38200F28B
:100F7000D881802900F04D81822940F09282A98891
:100F8000614B01F07F01042900F28C825F4C8900E3
:100F90000B44227062701A78930740F138832070F6
:100FA00002203AE1554B01931A6862B3584B5949F4
:100FB000544E18880C7896F800E04028054684F0D6
:100FC000010C28BF402544F00204BEF1000F81F857
:100FD00000C0A0EB050007EBC40C0CBF8821C821A2
:100FE00080B28EF0010E41EA0541CCF80420188051
:100FF00086F800E02A4447F8341010B9402D18BF95
:101000000022019B1A603E4B1A88B2F5A06F04D1F2
:1010100000219A785970404B1A70404A012313708E
:1010200040E7374A158842F22100854200F052819C
:101030002D4A47F83420F0E72B4A2C4B19F0080FC3
:1010400018BF134647F838302CE700F0B1FB344A9C
:10105000344952F82630002B00F02D8158688C5D01
:1010600042F8260003F10802C9F80420032C05D831
:10107000DFE804F0120F150204228A551A8819F0CD
:10108000080F0CBF8823C82343EA024347F83830CF
:1010900008E702228A55F1E703228A55EEE7052286
:1010A0008A55EBE7E00700F17881210600F1A28183
:1010B000A20706D51C4A1D4913780220DBB2137023
:1010C0000870E30602D5194B10221A7007B0BDE86C
:1010D000F08F00F0D9FC06E70000FF1F0812FF1F89
:1010E000B411FF1F1013FF1FC8004000880040000C
:1010F0009012FF1F1912FF1F9812FF1FB011FF1F40
:101100007C12FF1F1812FF1FC02007408812FF1F0C
:10111000C411FF1F8412FF1F98200740942007402E
:101120005C12FF1F9412FF1F882007408020074099
:1011300090200740B74A47F83800137801331370FE
:10114000B0E643F82600B44D93E642F22104A142F2
:1011500000F0AD8000F20E81B1F5086F00F054810F
:10116000B1F5106F40F09D81AC4AA9781170AC4D7B
:10117000042402E00134142C0CD057F83430190642
:10118000F8D505EBC40301345868083800F010FBAB
:10119000142CF2D1A349A44BA44A0291A449A54C12
:1011A0009D4D039405964FF0000988461C4616464F
:1011B0000495206828B1456800F0FAFA2846002D09
:1011C000F9D100232360049B30681A46002342F8BB
:1011D000293028B1456800F0EBFA2846002DF9D1F6
:1011E00000223260029A98F800301146002241F83D
:1011F000042B039A0291023B4FF0000122F81910D0
:10120000032B00F2B481DFE813F0E201AE01E2014A
:10121000AE01894C022022706270EA88824280F01E
:101220000D8286490D78402A45F0020E944607EB60
:10123000CE0028BF4FF0400C04EB0C034460029337
:10124000CCEB02004FEA0C484FF001090022C82401
:1012500044EA080385F0010447F83E3032700C7010
:10126000DFF8BCE1764BDFF8D481002840F0208124
:10127000BCF1400F1BD144F0020407EBC403029FF2
:10128000DFF89CE15F60002A40F02781020442F011
:10129000880286F800900D7007444EF834203B46D3
:1012A000402804D10020674A019910800B60664AEB
:1012B00001231370B1E68B5D032B00F2248101A2A0
:1012C00052F823F0A50E0000A50E0000E91300005F
:1012D000EF130000928862B95C4ACD1D11F8013B02
:1012E00002F8013F8D42F9D1594A1268862A00F06E
:1012F000C9805249524E0878327840F0020580F099
:101300000100087007EBC501002A4FF0000048609B
:1013100082F001020CBF8821C82147F835103270D5
:1013200086E640F20232914240F0B080A98801F096
:101330007F01042900F2B5806A88002A40F0B1805C
:10134000444C89000C448146217841F0020121700F
:101350000020029080468446044638490D7845F0C6
:10136000020E07EBCE03B9F1000F5C600CBF8824BE
:10137000C8246DE742F22124A14240F08E80A98862
:10138000002940F04281344B344A354C1B68AD781B
:10139000136081460A462570DAE72B49204B314815
:1013A000264EDFF8B0C0304DDFF8D4E02F4F0224D6
:1013B0000C702F4C18605C6098602E48D8601A61E1
:1013C0009A610D2332702C4C8CF800302B4EFF2389
:1013D0002B7001209F258EF800303A7033702570F5
:1013E000087007B0BDE8F08F00238B555AE5012344
:1013F0008B5557E51749224B80220D2008701A7033
:10140000A2077FF55EAE55E6044A0B4C12782270B7
:1014100003E700BF8512FF1FB411FF1F9012FF1FCB
:101420000000FF1F6C12FF1F0812FF1F5C12FF1F3E
:101430009412FF1F1013FF1F8812FF1F8412FF1F3B
:101440001812FF1FC411FF1F942007401713FF1F1E
:101450001813FF1FC0200740AC11FF1F2013FF1FF0
:10146000A812FF1F880040008820074098200740EE
:10147000C811FF1F1C12FF1F842007408C2007404B
:1014800080200740754A0F21117032E7B1F5A06F37
:1014900007D100224FF001095AE742F2213291426E
:1014A000F7D06F4B0F221A706E4A01231370B4E508
:1014B00040287FF6E0AE44F002040EEBC401029E29
:1014C0004E60AAB183F80090674A88F8005033460E
:1014D000403840334EF83420E5E6029B86F8009011
:1014E000020442F0C8020D7003444EF83420D7E6DF
:1014F00083F80090029B5D4A88F8005040384033E2
:101500004EF83420CFE619F0080F0CBF0223032356
:101510008B55C7E4A98801F07F010429C1D86A88E6
:10152000002ABED14E4C89000C448146217821F01E
:10153000020121700CE74E4A5468002CB1D0688833
:10154000B5F804E003E00C325468002CA9D01388ED
:101550008342F8D153887345F5D1000A03280CBFA4
:101560002078108959E64FF0010388F8003009F11E
:101570000109B9F1040F04F1040406F1040608F1AD
:1015800001087FF416AE3B4B059E3B4DDFF8F08023
:10159000002018704FF0010918F8013B05F8043BD2
:1015A0001A0719D44FEA890444F0020244F00304F4
:1015B000002347F8323047F83430304B9D4209F170
:1015C0000109E9D196F8009089F00102C0E64FF0D8
:1015D000000388F80030CAE700F0CAF818B307EB38
:1015E00049134FEA890408305860204B47F83430DB
:1015F00000F0BEF868B144F0010307EBC302083005
:101600005060194A47F83320CEE78146A0E6022011
:1016100003E6184B44F001021B7847F83200154AE4
:1016200001331370C0E7134B124A1B784FEA890449
:10163000013347F834001370DAE700BE40288446CF
:1016400028BF4FF0400C04EB0C03CCEB00004FEA3A
:101650000C48029300224FF001097EE61912FF1F89
:10166000C020074094200740C80040008800400088
:10167000746B00008512FF1FC4200740D420074070
:10168000706B00002DE9F04100F036FB0023234988
:101690001A4601EBC30041F833200133142B42609A
:1016A0004FF000041D48F4D11D491E4A0B68DFF8B5
:1016B0008C801D4F1D4D1E4EDFF884C0DFF884E086
:1016C00043F480230B60136843F040731360C0F34E
:1016D000072388F8003001F52831C0F307433B7039
:1016E000000EFF23CC3102F5C922287002F5847266
:1016F0008CF800300F4D8EF800300F483370012306
:1017000008F8083C70260C704FF40014102107F8FC
:101710002C3C2E7004601170BDE8F0810000FF1FAA
:101720003480044000D80040B0200740B420074077
:101730001020074035E400E004E100E09C20074071
:10174000802007408820074000F0A2B800F07AB857
:1017500000F054B800F08EB800F06AB900F044B957
:101760000846114600F0B0B8084600F031B900BF95
:1017700072B60D480268B2FA82F30B2B10DC4FF000
:101780000041D94022EA0102026062B6074803EB39
:10179000C303DB00C2180021C150104651607047DE
:1017A00062B60020704700BF1007FF1F9803FF1F9D
:1017B0000D4B0E4AC31AA2FB03231B090B2B0CD89B
:1017C0000B4A127852B972B60A484FF000410268CB
:1017D00021FA03F31A43026062B67047064A127890
:1017E000002AF0D0FFF790BA9803FF1F398EE33834
:1017F0008512FF1F1007FF1F9012FF1F38B50F4DF6
:10180000286878B143880288C118013393420C7A62
:1018100002D24380204638BDFFF7CAFF002320468E
:101820002B6038BD064B1B782BB10320FFF738FA2D
:1018300028600028E6D14FF0FF3038BDA412FF1F0A
:101840009012FF1F10B5094C206818B14388184446
:10185000007A10BD064B1B782BB10320FFF720FA4E
:1018600020600028F2D14FF0FF3010BDA412FF1FFE
:101870009012FF1F044B054A1B6890881BB11A8801
:101880005B88D31A18447047A412FF1F1013FF1F60
:101890000B4B1B789BB110B50A4C206848B1FFF781
:1018A00087FF002303202360FFF7FAF930B1FFF729
:1018B0007FFF0320FFF7F4F90028F8D110BD70472F
:1018C0009012FF1FA412FF1F2DE9F04FDFF8F890D0
:1018D00083B0012289F80020019169B3DFF8EC8020
:1018E000364F019E8346D8F80000B0B3344D44888B
:1018F000C4F14001B14228BF314604EB010E002281
:101900001FFA8EFE2A70761AA0F802E000F1080293
:1019100051B1013C224459441BF8014B02F8014FDC
:101920008B45F9D1B0F802E0BEF13F0F0BD8254A44
:1019300005211170002ED6D10198002389F80030BE
:1019400003B0BDE8F08F4022028001460420FFF77B
:101950001DFA0022C8F80020E9E73A782AB3184DAA
:101960004DF2E9044FF0010A07E0013C16D02A7855
:10197000A2B900F0ADF83A78BAB10420FFF7AEF999
:101980000728F2D889F800A0FFF7F2FEC8F8000097
:101990000028ACD10C4B013C1870E8D101234FF06A
:1019A000FF302B7003B0BDE8F08F00234FF0FF3005
:1019B00089F8003003B0BDE8F08F00BF9012FF1F20
:1019C000A012FF1F9812FF1F9912FF1F9C12FF1FEA
:1019D00000B583B002AB012103F8010D1846FFF7F3
:1019E00073FF03B05DF804FB38B50E4D0E4C28684C
:1019F0000123237028B1408800232370C0F14000E8
:101A000038BD0A4B1B7813B90020207038BD042064
:101A1000FFF764F90728F7D8FFF7AAFE2860002827
:101A2000E9D1F1E79C12FF1F9912FF1F9012FF1FCF
:101A3000F8B5114B1B788BB1104E114D346801274E
:101A40002F7064B10F4A63880027177021462380E6
:101A50000420FFF79BF9376000232B70F8BDFFF7D8
:101A600087FE084B28B1014604201C70FFF78EF951
:101A7000F2E71F70F0E700BF9012FF1F9C12FF1FDC
:101A80009912FF1F9812FF1F38B50E4B1B7873B9C0
:101A90000D4C216861B103F0FF054B880B800420D9
:101AA000FFF774F9256038BD084B01221A7038BD64
:101AB000FFF75EFE0028F7D00146BDE8384004205D
:101AC000FFF764B99912FF1F9C12FF1F9812FF1FA6
:101AD0002DE9F843314E337893B1314F3A787AB9E2
:101AE0000122D9073A7036D49A0719D400225B072D
:101AF0003A7005D52B4B1A6812B1EFF305820AB183
:101B0000BDE8F883EFF3108172B6186818B1264C5F
:101B10002278002A2ED00029F2D162B6BDE8F883DF
:101B2000DFF8908098F80020002ADFD0DFF8889056
:101B3000002405E0013498F80030E4B2A34212D941
:101B400059F824502B6828461B6998470028F1D083
:101B50002B699847EEE7FFF78DFEC8B9134B1B784A
:101B60001BB93378C0E73378C0E7337803F0FE035E
:101B70003370B9E745691D60012323705DB1AA6127
:101B800001B962B600254577836898472570B7E7A5
:101B900000F0B0F8E2E7064B1D60F1E71407FF1F05
:101BA000A912FF1FB812FF1FBC12FF1F1707FF1F4C
:101BB000B412FF1FD812FF1FC012FF1F70B5EFF342
:101BC000108272B60C4C206880B10C4E002543691F
:101BD000236073B19D6102B962B645778368984707
:101BE000EFF3108272B620680028F0D102B962B615
:101BF00070BD3360EFE700BFAC12FF1FB012FF1FD4
:101C0000FFF7DCBF024A136801331360704700BF5F
:101C1000AC11FF1F30B42948294A2A4B2A4D6024B1
:101C2000E121047011701B78284C082B30D00A2B4E
:101C30002748284937D00C2B0CBF35225D221223B0
:101C40002A60236002600B60234B24491B78244ADE
:101C5000BBB101230B601360224B23491B78234A3D
:101C6000012B26D9042B0FD9082B1ED9102B94BF7A
:101C7000862387230B6013601D4B01221A7030BC32
:101C800070470B601360E7E784230B601360F3E792
:101C900000F58E200F490830212213232A6023608B
:101CA00002600B60D0E73922F7E785230B601360F1
:101CB000E2E780230B601360DEE700BF00400740CF
:101CC000014007401507FF1F08B003400CB0034058
:101CD00008B00B400CB00B40DA12FF1F20B00340DD
:101CE00020B00B401607FF1F24B0034024B00B4068
:101CF000D912FF1F704700BF72B6184A184B194916
:101D00001160702280211A701A46197013781B0610
:101D1000FCD510B5144B84B0186862B6134B144C44
:101D2000984298BF00EB800001A998BF40000A22AA
:101D3000FEF748FE01A92046002311F8012B0133CC
:101D40003AB10A2B20F8022FF7D11623237004B0E2
:101D500010BD5B00DBB2237004B010BD0400024074
:101D600000000240000007410C0002407F969800EE
:101D7000A407FF1FFEF79CBEFEF7A8BE81F000413E
:101D800002E000BF83F0004330B54FEA41044FEA60
:101D9000430594EA050F08BF90EA020F1FBF54EAFB
:101DA000000C55EA020C7FEA645C7FEA655C00F097
:101DB000E2804FEA5454D4EB5555B8BF6D420CDD68
:101DC0002C4480EA020281EA030382EA000083EAEB
:101DD000010180EA020281EA0303362D88BF30BD8B
:101DE00011F0004F4FEA01314FF4801C4CEA1131E1
:101DF00002D0404261EB410113F0004F4FEA033340
:101E00004CEA133302D0524263EB430394EA050FCA
:101E100000F0A780A4F10104D5F1200E0DDB02FA39
:101E20000EFC22FA05F2801841F1000103FA0EF2CD
:101E3000801843FA05F359410EE0A5F120050EF193
:101E4000200E012A03FA0EFC28BF4CF0020C43FAC4
:101E500005F3C01851EBE37101F0004507D54FF0D1
:101E6000000EDCF1000C7EEB00006EEB0101B1F521
:101E7000801F1BD3B1F5001F0CD349085FEA300067
:101E80004FEA3C0C04F101044FEA445212F5800F72
:101E900080F09A80BCF1004F08BF5FEA500C50F10F
:101EA000000041EB045141EA050130BD5FEA4C0CF2
:101EB000404141EB010111F4801FA4F10104E9D17B
:101EC00091F0000F04BF01460020B1FA81F308BF72
:101ED0002033A3F10B03B3F120020CDA0C3208DD3E
:101EE00002F1140CC2F10C0201FA0CF021FA02F119
:101EF0000CE002F11402D8BFC2F1200C01FA02F189
:101F000020FA0CFCDCBF41EA0C019040E41AA2BFAD
:101F100001EB0451294330BD6FEA04041F3C1CDA75
:101F20000C340EDC04F11404C4F1200220FA04F095
:101F300001FA02F340EA030021FA04F345EA03013F
:101F400030BDC4F10C04C4F1200220FA02F001FA01
:101F500004F340EA0300294630BD21FA04F0294683
:101F600030BD94F0000F83F4801306BF81F480111C
:101F70000134013D4EE77FEA645C18BF7FEA655C8F
:101F800029D094EA050F08BF90EA020F05D054EA61
:101F9000000C04BF1946104630BD91EA030F1EBF66
:101FA0000021002030BD5FEA545C05D1400049416A
:101FB00028BF41F0004130BD14F580043CBF01F55D
:101FC000801130BD01F0004545F0FE4141F4700143
:101FD0004FF0000030BD7FEA645C1ABF194610461E
:101FE0007FEA655C1CBF0B46024650EA013406BF1F
:101FF00052EA033591EA030F41F4002130BD00BFDE
:1020000090F0000F04BF0021704730B54FF480649A
:1020100004F132044FF000054FF0000150E700BF1B
:1020200090F0000F04BF0021704730B54FF480647A
:1020300004F1320410F0004548BF40424FF0000167
:102040003EE700BF42004FEAE2014FEA31014FEAAA
:1020500002701FBF12F07F4393F07F4F81F06051F9
:10206000704792F0000F14BF93F07F4F704730B568
:102070004FF4607401F0004521F0004120E700BFFB
:1020800050EA010208BF704730B54FF000050AE082
:1020900050EA010208BF704730B511F0004502D583
:1020A000404261EB41014FF4806404F132045FEA85
:1020B000915C3FF4DCAE4FF003025FEADC0C18BF2A
:1020C00003325FEADC0C18BF033202EBDC02C2F120
:1020D000200300FA03FC20FA02F001FA03FE40EAB2
:1020E0000E0021FA02F11444C1E600BF70B54FF0B2
:1020F000FF0C4CF4E06C1CEA11541DBF1CEA135594
:1021000094EA0C0F95EA0C0F00F0DEF82C4481EAFB
:10211000030621EA4C5123EA4C5350EA013518BF1B
:1021200052EA033541F4801143F4801338D0A0FB08
:1021300002CE4FF00005E1FB02E506F00042E0FBB5
:1021400003E54FF00006E1FB03569CF0000F18BFBB
:102150004EF0010EA4F1FF04B6F5007F64F5407463
:1021600004D25FEA4E0E6D4146EB060642EAC621F6
:1021700041EA55514FEAC52040EA5E504FEACE2E63
:10218000B4F1FD0C88BFBCF5E06F1ED8BEF1004F66
:1021900008BF5FEA500E50F1000041EB045170BDE2
:1021A00006F0004646EA010140EA020081EA030126
:1021B000B4EB5C04C2BFD4EB0C0541EA045170BD22
:1021C00041F480114FF0000E013C00F3AB8014F19C
:1021D000360FDEBF002001F0004170BDC4F10004E5
:1021E000203C35DA0C341BDC04F11404C4F1200566
:1021F00000FA05F320FA04F001FA05F240EA0200C1
:1022000001F0004221F0004110EBD37021FA04F6F6
:1022100042EB06015EEA430E08BF20EAD37070BDB0
:10222000C4F10C04C4F1200500FA04F320FA05F00F
:1022300001FA04F240EA020001F0004110EBD37011
:1022400041F100015EEA430E08BF20EAD37070BD81
:10225000C4F1200500FA05F24EEA020E20FA04F35A
:1022600001FA05F243EA020321FA04F001F0004109
:1022700021FA04F220EA020000EBD3705EEA430E7A
:1022800008BF20EAD37070BD94F0000F0FD101F0A9
:102290000046400041EB010111F4801F08BF013CE2
:1022A000F7D041EA060195F0000F18BF704703F020
:1022B0000046520043EB030313F4801F08BF013DA7
:1022C000F7D043EA0603704794EA0C0F0CEA135563
:1022D00018BF95EA0C0F0CD050EA410618BF52EA1D
:1022E0004306D1D181EA030101F000414FF0000023
:1022F00070BD50EA410606BF1046194652EA430631
:1023000019D094EA0C0F02D150EA013613D195EAA4
:102310000C0F05D152EA03361CBF104619460AD1EC
:1023200081EA030101F0004141F0FE4141F47001F6
:102330004FF0000070BD41F0FE4141F4780170BDE6
:1023400070B54FF0FF0C4CF4E06C1CEA11541DBF4B
:102350001CEA135594EA0C0F95EA0C0F00F0A7F84D
:10236000A4EB050481EA030E52EA03354FEA01317A
:1023700000F088804FEA03334FF0805545EA13138D
:1023800043EA12634FEA022245EA111545EA106555
:102390004FEA00260EF000419D4208BF964244F1EC
:1023A000FD0404F5407402D25B084FEA3202B61A0B
:1023B00065EB03055B084FEA32024FF480104FF4DF
:1023C000002CB6EB020E75EB030E22BFB61A754653
:1023D00040EA0C005B084FEA3202B6EB020E75EBE6
:1023E000030E22BFB61A754640EA5C005B084FEA4E
:1023F0003202B6EB020E75EB030E22BFB61A75461B
:1024000040EA9C005B084FEA3202B6EB020E75EB25
:10241000030E22BFB61A754640EADC0055EA060EE6
:1024200018D04FEA051545EA16754FEA06164FEA29
:10243000C30343EA52734FEAC2025FEA1C1CC0D1D5
:1024400011F4801F0BD141EA00014FF000004FF062
:10245000004CB6E711F4801F04BF01430020B4F123
:10246000FD0C88BFBCF5E06F3FF6AFAEB5EB030CDB
:1024700004BFB6EB020C5FEA500C50F1000041EBD8
:10248000045170BD0EF0004E4EEA113114EB5C04A5
:10249000C2BFD4EB0C0541EA045170BD41F4801178
:1024A0004FF0000E013C90E645EA060E8DE60CEA80
:1024B000135594EA0C0F08BF95EA0C0F3FF43BAF9D
:1024C00094EA0C0F0AD150EA01347FF434AF95EA54
:1024D0000C0F7FF425AF104619462CE795EA0C0F38
:1024E00006D152EA03353FF4FDAE1046194622E705
:1024F00050EA410618BF52EA43067FF4C5AE50EADF
:1025000041047FF40DAF52EA43057FF4EBAE12E7CE
:102510004FF0FF3C06E000BF4FF0010C02E000BFAF
:102520004FF0010C4DF804CD4FEA410C7FEA6C5C92
:102530004FEA430C18BF7FEA6C5C1BD001B050EA35
:10254000410C0CBF52EA430C91EA030F02BF90EA20
:10255000020F0020704710F1000F91EA030F58BFDF
:10256000994208BF90422CBFD8176FEAE37040F041
:10257000010070474FEA410C7FEA6C5C02D150EADF
:10258000013C07D14FEA430C7FEA6C5CD6D152EA9A
:10259000033CD3D05DF8040B704700BF844610465F
:1025A00062468C461946634600E000BF01B5FFF75E
:1025B000B7FF002848BF10F1000F01BD4DF808ED2E
:1025C000FFF7F4FF0CBF012000205DF808FB00BFFF
:1025D0004DF808EDFFF7EAFF34BF012000205DF859
:1025E00008FB00BF4DF808EDFFF7E0FF94BF0120A6
:1025F00000205DF808FB00BF4DF808EDFFF7CEFFA7
:1026000094BF012000205DF808FB00BF4DF808EDE5
:10261000FFF7C4FF34BF012000205DF808FB00BFB6
:102620004FEA410C7FEA6C5C02D150EA013C0AD1CE
:102630004FEA430C7FEA6C5C02D152EA033C02D1C0
:102640004FF0000070474FF00100704753B94AB98E
:10265000002908BF00281CBF4FF0FF314FF0FF30AA
:1026600000F07EB9ADF1080C6DE904CE00F006F87B
:10267000DDF804E0DDE9022304B070472DE9F047FE
:102680008C460E460446089D002B50D18A421746C0
:102690006CD9B2FA82FEBEF1000F0BD0CEF120044D
:1026A00020FA04F401FA0EF644EA060C02FA0EF7D8
:1026B00000FA0EF44FEA1749220CBCFBF9F01FFA9E
:1026C00087F809FB10C642EA064600FB08F3B3424E
:1026D00009D9F61900F1FF3280F02281B34240F2AD
:1026E0001F8102383E44F61AA2B2B6FBF9F309FB89
:1026F000136642EA064403FB08F8A04509D9E41929
:1027000003F1FF3280F00A81A04540F20781023BCD
:102710003C44C8EB040443EA00400021002D62D091
:1027200024FA0EF400232C606B60BDE8F0878B4226
:1027300007D9002D55D0002185E841000846BDE8A5
:10274000F087B3FA83F1002940F09080B34202D3BE
:10275000824200F2F880841A66EB03060120B44638
:10276000002D40D085E81010BDE8F08712B9012790
:10277000B7FBF2F7B7FA87FEBEF1000F35D1F31BB6
:102780004FEA17481FFA87FC0121B3FBF8F0220C2F
:1027900008FB103642EA06460CFB00F3B34207D9A9
:1027A000F61900F1FF3202D2B34200F2CE80104699
:1027B000F61AA2B2B6FBF8F308FB136642EA064427
:1027C0000CFB03FCA44507D9E41903F1FF3202D244
:1027D000A44500F2B5801346CCEB040443EA004064
:1027E0009CE729462846BDE8F087CEF1200106FA8D
:1027F0000EF307FA0EF720FA01F94FEA1748CE4018
:1028000049EA0309B6FBF8FA4FEA194408FB1A66CD
:102810001FFA87FC44EA06430AFB0CF29A4200FACC
:102820000EF40AD9DB190AF1FF3180F087809A4251
:1028300040F28480AAF1020A3B449B1A1FFA89F9EC
:10284000B3FBF8F108FB113349EA034301FB0CF633
:102850009E4207D9DB1901F1FF326BD29E4269D942
:1028600002393B449B1B41EA0A418EE7C1F1200E2D
:1028700022FA0EF48B40234320FA0EF706FA01F4F5
:102880004FEA134C26FA0EF63C43B6FBFCF9270C34
:102890000CFB19661FFA83F847EA064609FB08F79E
:1028A000B74202FA01F200FA01FA08D9F61809F162
:1028B000FF3041D2B7423FD9A9F102091E44F61BAD
:1028C000A0B2B6FBFCF40CFB146640EA064704FB1E
:1028D00008F8B84507D9FF1804F1FF3028D2B845E9
:1028E00026D9023C1F4444EA0940C8EB0707A0FB75
:1028F00002894F4544464E4614D329D065B3BAEBFE
:10290000040367EB060707FA0EFECB40CF404EEA02
:10291000030385E888000021BDE8F0871346F8E648
:102920001046E0E6B8EB020469EB03060138E5E780
:102930000446D8E7114695E78146C0E78A467CE71A
:10294000023B3C4448E708460AE702383E442FE78A
:10295000C245E7D33E46D1E72946BDE8F08700BF30
:10296000704700BF014B1868704700BFE80BFF1F9E
:1029700070B50F4E0F4D761BB61018BF002405D052
:10298000013455F8043B9847A642F9D10A4E0B4D45
:10299000761B04F05DFAB61018BF002406D001348F
:1029A00055F8043B9847A642F9D170BD70BD00BFF1
:1029B0005C6E00005C6E0000646E00005C6E0000E7
:1029C000024B0146186800F003B800BFE80BFF1F78
:1029D0002DE9F04F01F10B05162D83B0064640F2AC
:1029E0009F8035F0070500F1BF80A94200F2BC804E
:1029F00000F06EFBB5F5FC7FC0F09C826B0A00F026
:102A0000BA80042B00F28381A80900F1390E4FEA45
:102A10004E033830C44F07EB8303A3F108015C6811
:102A2000A14207D1ACE0002A80F2AC80E468A14268
:102A300000F0A680636823F003035A1B0F2AF2DD1F
:102A4000B9493C6901F1080E744500F0B38163682F
:102A500023F003035A1B0F2A00F39981002AC1F8BF
:102A600014E0C1F810E080F29E80B3F5007F80F0A2
:102A70006781DB0803F1010C01229B1002FA03F3CA
:102A80004A6851F83C80C4F8088001EBCC091A432D
:102A9000A9F10803E3604A6041F83C40C8F80C40E3
:102AA000831001249C40944200F28A80144206D193
:102AB00020F003006400144200F10400FAD007EB98
:102AC000C009CC468046DCF80C108C4507D173E178
:102AD000002A80F28181C9688C4500F06D814B68C5
:102AE00023F003035A1B0F2AF2DD0C46D1F80CC069
:102AF00054F8088F4B1945F001054D6042F0010173
:102B0000C8F80CC03046CCF808807B613B61C3F844
:102B10000CE0C3F808E059609A5000F0DBFA1FE0BF
:102B2000102921D800F0D4FA1025062302207E4F68
:102B300007EB8303A3F108025C68944200F045812F
:102B40006368E168A56823F00303234430465A68AC
:102B5000E96042F001028D605A6000F0BBFA08346F
:102B6000204603B0BDE8F08F00240C2320463360DC
:102B700003B0BDE8F08F80234FF0400E3F2049E7BF
:102B800070465DE72344E1685A68A56842F0010297
:102B9000E96030468D605A6000F09CFA08342046A7
:102BA00003B0BDE8F08F234430465A6842F001027A
:102BB0005A6000F08FFA0834204603B0BDE8F08F69
:102BC000BC68636823F00308A84504D3C5EB080379
:102BD0000F2B00F38C80554BDFF860911A68D9F801
:102BE000003001332A4404EB080A00F0608102F54A
:102BF00080520F3222F47F6222F00F0211463046DB
:102C0000019200F059FCB0F1FF3F8346019A00F0B9
:102C10005881824500F2FC80454B1968DA45114421
:102C2000196000F05381D9F80000DFF810E101309D
:102C30001BBFCAEB0B0A5144CEF800B019601BF061
:102C4000070100F01781C1F10800C1F580518344EC
:102C500008315A44C2F30B02C2EB0109494630461F
:102C6000019300F029FC431C019B00F03F81CBEB5A
:102C700000024A4442F001021968C7F808B049440A
:102C8000BC42CBF804201960DFF8A49016D0B8F14C
:102C90000F0F40F2FD806268A8F10C0323F00703D8
:102CA000E01802F001024FF0050E1A430F2B62608C
:102CB000C0F804E0C0F808E000F21C811D4BBC68BD
:102CC0001A68914288BF19601B4B1A68914262686A
:102CD00088BF196022F003029542A2EB050301D8D8
:102CE0000F2B04DC304600F0F5F9002438E76219B8
:102CF00043F0010345F0010565603046BA6053605A
:102D000000F0E8F90834204603B0BDE8F08F142B3A
:102D100071D9542B00F2A480280B00F16F0E4FEAFA
:102D20004E036E3076E600BF580DFF1FE412FF1F02
:102D3000E812FF1FE012FF1FDC12FF1F6411FF1FCC
:102D40005A0A042A5ED9142A00F2B38002F15C0107
:102D500049005B3207EB810C57F82110DFF8DC816A
:102D6000ACF1080C8C4500F088804A6822F0030220
:102D7000934202D289688C45F7D1D1F80CC07A68A9
:102D8000C4F80CC0A160CCF80840CC6088E6631998
:102D900042F0010745F00105656030464B610B616B
:102DA000C3F80CE0C3F808E05F609A50083400F004
:102DB00091F9D5E64A6873E608F1010818F0030FA7
:102DC0000CF1080C7FF47FAE30E0DC68A34208BF52
:102DD00002303FF435AEB3E60B440C465A68C9687E
:102DE00054F8085F42F001025A603046E9608D6095
:102DF00000F070F9B4E603F15C0E03F15B004FEAFA
:102E00004E0307E69A0902F1390149003832A1E779
:102E1000BC424A4B3FF400AF9C68626822F0030258
:102E20005AE759F80839994540F0828010F0030FAD
:102E300000F1FF30F5D17B6823EA04037B60640076
:102E40009C423FF6BDAE002C3FF4BAAE1C42404659
:102E50007FF435AE64001C4200F10400FAD02EE687
:102E6000B3F5AA7F18D8E80B00F1780E4FEA4E03AD
:102E70007730CFE54FF48051EBE60121D8F80430EC
:102E8000921001FA02F21A43C8F80420614677E76B
:102E90000123CBF8043025E740F25452934220D866
:102EA000A80C00F17D0E4FEA4E037C30B2E51032E3
:102EB000A4E6542A26D81A0B02F16F0149006E329B
:102EC00048E7BC68626822F0030205E7CAF30B001A
:102ED00000287FF4A8AE4244BB6842F001025A6069
:102EE000ECE6FE234FF07F0E7E2093E501224FF0AB
:102EF0000009C1E604F10801304600F037FCD9F8BA
:102F00000010DBE6B2F5AA7F05D8DA0B02F17801F2
:102F1000490077321EE740F254518A4205D89A0C94
:102F200002F17D0149007C3214E7FE217E2211E787
:102F30007B6884E7E808431C5B00F8E5580DFF1F39
:102F400082B049B15AB16BB113780B601278101C82
:102F500018BF012002B0704701A9002AF3D1104622
:102F600002B070476FF00100F4E700BF8842F0B58F
:102F70000DD98B1898420AD28118002A51D09A1A7A
:102F800013F8014D01F8014D9342F9D1F0BD0F2A1C
:102F900048D941EA00039B0746D100F1100401F132
:102FA0001003154653F8106C44F8106C53F80C6C71
:102FB00044F80C6C53F8086C44F8086C103D53F856
:102FC000046C44F8046C0F2D03F1100304F1100499
:102FD000E8D8A2F1100323F00F0302F00F0E103314
:102FE000BEF1030F1944034421D91E1F0D46744638
:102FF000043C55F8047B46F8047F032CF8D8AEF166
:10300000040424F0030404342344214402F00302A2
:1030100062B1013B0A4411F8014B03F8014F8A42A7
:10302000F9D1F0BD0346F3E70346F2E7F0BD72467F
:10303000EEE700BF70B4840746D0541E002A41D08A
:10304000CDB2034602E0621EE4B3144603F8015B0E
:103050009A07F8D1032C2ED9CDB245EA05250F2CBD
:1030600045EA054519D903F110022646103E0F2EF8
:1030700042F8105C42F80C5C42F8085C42F8045CD0
:1030800002F11002F2D8A4F1100222F00F0204F0B3
:103090000F041032032C13440DD91E462246043A65
:1030A000032A46F8045BFAD8221F22F003020432F6
:1030B000134404F003042CB1C9B21C4403F8011BEF
:1030C000A342FBD170BC704714460346C2E700BF61
:1030D000704700BF704700BF2DE9F04F174683B01F
:1030E000002900F0C1800E46814607F10B05FFF76D
:1030F000EFFF56F804EC162D2EF00304A6F1080895
:1031000040D810221546AF4241D8944275DAC94BD7
:10311000996808EB04008842416800F0D98021F0EA
:10312000010303445B68DB077DD51EF0010F35D03A
:1031300039464846FFF74CFC0746E0B156F8043CD8
:1031400023F001034344A0F108029A4200F04481B5
:10315000221F242A00F23181132A00F2048103463F
:103160003246116819605168596092689A60314618
:10317000484600F0FBFA4846FFF7ACFF384603B07C
:10318000BDE8F08F25F00705002D2A46BBDA0C2399
:103190000020C9F8003003B0BDE8F08F56F8083CB5
:1031A000C3EB080ADAF8043023F0030C04EB0C0339
:1031B0009342BDDB5746DAF80C1057F8080F221F70
:1031C000242AC160886000F21781132A40F212811C
:1031D0003168CAF808107168CAF80C101B2A00F28E
:1031E0002B8108360AF11002316811607168516054
:1031F000B16891603E461C46D046631B0F2B1DD81C
:10320000D8F8043003F0010323434444C8F80430E1
:10321000636843F0010363604846FFF75BFF304695
:1032200003B0BDE8F08F21F003012144914221DB7E
:10323000C36882680C46D3609A60DEE7D8F8042041
:1032400008EB050102F00102154343F001020B44B3
:10325000C8F804504A605A6842F0010208315A60C6
:10326000484600F083FAD7E7114603B0BDE8F04FB7
:10327000FFF7AEBB1EF0010F7FF45AAF56F8083CC3
:10328000C3EB080ADAF8043023F0030C01EB0C0E50
:1032900096458BDBC36882685746D3609A6057F8BF
:1032A000081FDAF80C30CB60221F242A996000F244
:1032B0009980132A62D93368CAF808307368CAF84B
:1032C0000C301B2A00F2A08008360AF1100356E0E9
:1032D00021F0030BA34405F11000834559DA1EF0D9
:1032E000010F7FF425AF56F8081CC1EB080ADAF885
:1032F000041021F0030CE34458453FF757AF5746FD
:10330000DAF80C1057F8080F221F242AC1608860D1
:1033100000F2B480132A40F2A5803168CAF8081080
:103320007168CAF80C101B2A00F2AF8008360AF147
:1033300010023168116071685160B16891600AEBE8
:103340000501C5EB0B0242F0010299604A60DAF810
:10335000043003F001031D434846CAF80450FFF748
:10336000B9FE38465CE733680360736843601B2A24
:1033700027D800F1080306F10802F2E63B4632685E
:103380001A6072685A60B2689A603E467446D046C7
:1033900033E708EB0501C5EB0B0B4BF0010299601D
:1033A0004A6056F8043C03F001031D43484646F8C2
:1033B000045CFFF78FFE304632E73146FFF7D6FD5B
:1033C000D5E6B3688360F368C360242A28D000F18F
:1033D000100306F11002C4E650F8043C23F0030386
:1033E0001C440AE7314638467446D046FFF7BEFD16
:1033F0003E4602E73A46F7E6314638461C46D04696
:10340000FFF7B4FD3E46F8E6B368CAF81030F3683B
:10341000CAF81430242A1BD010360AF11803AEE77C
:10342000336903617369436106F1180200F11803FF
:1034300097E600BF580DFF1FB168CAF81010F16879
:10344000CAF81410242A0FD010360AF11802CBE65D
:103450003369CAF818307369CAF81C3018360AF193
:1034600020038CE73A4664E73269CAF8182072698B
:10347000CAF81C2018360AF12002B5E63146384653
:103480000193FFF773FD019B59E7B168CAF810106B
:10349000F168CAF81410242A03D010360AF1180271
:1034A00047E73269CAF818207269CAF81C20183632
:1034B0000AF120023DE700BF38B5074C002305465E
:1034C00008462360FDF768FA431C00D038BD236826
:1034D000002BFBD02B6038BD2413FF1FFFFFFFFF25
:1034E000FFFFFFFFFFFFFFFFFFFFFFFFFFFFFFFFEC
:1034F000FFFFFFFFFFFFFFFFFFFFFFFFFFFFFFFFDC
:1035000090F800F06DE9024520F007016FF0000C23
:1035100010F0070491F820F040F049804FF00004CB
:103520006FF00700D1E9002391F840F000F10800A6
:1035300082FA4CF2A4FA8CF283FA4CF3A2FA8CF3DE
:103540004BBBD1E9022382FA4CF200F10800A4FA45
:103550008CF283FA4CF3A2FA8CF3E3B9D1E9042399
:1035600082FA4CF200F10800A4FA8CF283FA4CF3D0
:10357000A2FA8CF37BB9D1E9062301F1200182FA8A
:103580004CF200F10800A4FA8CF283FA4CF3A2FA90
:103590008CF3002BC6D0002A04BF04301A4612BA9E
:1035A000B2FA82F2FDE8024500EBD2007047D1E9A1
:1035B000002304F00305C4F100004FEAC50514F030
:1035C000040F91F840F00CFA05F562EA05021CBF01
:1035D00063EA050362464FF00004A9E7F0B5ADF5D4
:1035E000057D04AD00930F4613464FF4007403AA03
:1035F00029460394064600F015FD88B104460246AC
:103600003946039B304600F029F8AC42039004D0C1
:103610003046214600F0AAF803980DF5057DF0BD6F
:103620004FF0FF30F9E700BF10B4044C13460A46D0
:10363000014620685DF8044BFFF7D0BFE80BFF1F81
:1036400021B1FF2A04D80A7001207047084670474C
:103650008A2303604FF0FF30704700BF70B50D46FE
:10366000084C114606461A46284600232360FDF7FB
:1036700071F8431C00D070BD2368002BFBD0336071
:1036800070BD00BF2413FF1F024B13B1024800F0AE
:1036900005B8704700000000A9360000002301466D
:1036A0001A46184600F0EEBC38B5074D074C2C1BE7
:1036B000A41005D0013C55F8043D9847002CF9D1E1
:1036C000BDE8384003F0CEBB000000000000000061
:1036D000F8B5234F0C460646FFF7FAFCBB685D6859
:1036E00025F00305291B01F6EF7121F47F6121F01C
:1036F0000F01A1F58054B4F5805F07DB002130464F
:10370000FFF7DAFEBB682B44984204D03046FFF73F
:10371000E1FC0020F8BD61423046FFF7CDFE0130EC
:103720000DD0104BBA6819682D1B45F001053046C5
:10373000091B55601960FFF7CDFC0120F8BD002181
:103740003046FFF7B9FEBA68831A0F2BDEDD064C50
:103750000449246843F00103001B53600860D5E767
:10376000580DFF1FE812FF1F6411FF1F002945D0ED
:103770002DE9F0410D468046FFF7AAFC55F8047C80
:103780006A4927F00103A5F10804E2188E68506821
:10379000B24220F0030062D0FE0750600BD455F80F
:1037A000087CE41B01F1080EA56875453B446FD009
:1037B000E768EF60BD6015186D68ED0742D543F00E
:1037C00001026260E350B3F5007F18D2DB085A1C97
:1037D0004D6851F83270A76001209B1000FA03F386
:1037E00001EBC2001D430838E0604D6041F83240F3
:1037F000FC604046BDE8F041FFF76CBC70475A0AD8
:10380000042A53D89A0902F139077F0002F13805DA
:1038100001EB870051F827204449083890424DD0E9
:10382000516821F003018B4202D292689042F7D195
:10383000D068E060A2608460D4604046BDE8F0419A
:10384000FFF748BC95683A4FBD4203443FD0D0686B
:10385000E86043F0010285606260E350B3E7FF0770
:10386000034407D455F8082CA41A1344A068E2684E
:10387000C26090602F4A126843F00100934260607A
:103880008C60B6D32C4B40461968FFF721FFB0E798
:1038900011184968C90744D49168D268CA600344C2
:1038A00043F0010091606060E350A2E7142A17D84A
:1038B00002F15C077F0002F15B05A9E7AA104B68E3
:1038C000012505FA02F213434B600246B1E743F0CB
:1038D00001024C610C61E560A5606260E35088E71D
:1038E000542A06D81A0B02F16F077F0002F16E0509
:1038F0008EE7B2F5AA7F06D8DA0B02F178077F00CF
:1039000002F1770584E740F25450824206D89A0CBF
:1039100002F17D077F0002F17C0579E7FE277E2515
:1039200076E743F001026260E35062E7580DFF1F43
:10393000600DFF1F6011FF1FE412FF1F044A054BBB
:103940001268506B002808BF1846F030704700BF5F
:10395000E80BFF1FEC0BFF1FFFFFFFFFFFFFFFFF49
:1039600001F0FF01102A2BDB10F0070F08D010F830
:10397000013B013A8B422DD010F0070F42B3F6D134
:10398000F0B441EA012141EA014122F007047FF04D
:1039900000070023F0E80256083C85EA010586EAA4
:1039A000010685FA47F5A3FA87F586FA47F6A5FAE0
:1039B00087F68EB9EED1F0BC01F0FF0102F00702EC
:1039C00032B110F8013B013A83EA010313B1F8D197
:1039D0000020704701387047002D06BF3546033878
:1039E000073815F0010F07D1013015F4807F02BFB1
:1039F000013015F4C03F0130F0BC0138704700BF02
:103A0000C36C70B505460C464BB153F8240080B129
:103A1000026843F8242000230361C36070BD2122A3
:103A2000042100F081FBE86403460028EDD100206A
:103A300070BD012101FA04F6721D2846920000F0C3
:103A400073FB0028F3D044608660E4E731B1C36CB7
:103A50004A6853F82200086043F82210704700BFFC
:103A6000F0B50C6983B00D46064601F1140E00272F
:103A7000DEF8000081B202FB01310B0C000C02FBEE
:103A8000003389B2013701EB0341BC424EF8041BFD
:103A90004FEA1343ECDC3BB1AA68944207DA05EB2A
:103AA0008402013453612C61284603B0F0BD69687B
:103AB000019301313046FFF7A3FF2A69023205F175
:103AC0000C01074692000C30FCF762FEF26C69684C
:103AD000019B52F82100286042F821503D46DEE764
:103AE000030C1B04B3B90004102310F07F4F04BF74
:103AF0000002083310F0704F04BF0001043310F0CF
:103B0000404F04BF80000233002807DB420003D48B
:103B1000202070470023E8E7581C7047184670477C
:103B2000036813F0070207D0D90720D49A0720D4DE
:103B30009B0803600220704799B209B91B0C102240
:103B400013F0FF0F04BF1B0A0832190704BF1B093B
:103B50000432990704BF9B080232D90704D45B08DA
:103B600001D12020704701320360104670470020C9
:103B700070475B0803600120704700BF10B50C461A
:103B80000121FFF73DFF01224461026110BD00BF2A
:103B90002DE9F04F0D691769BD4283B00C461646FA
:103BA00004DA2A4634463D460E461746A368616845
:103BB00005EB07089845C8BF0131FFF721FF00F169
:103BC000140C0CEB8809CC45009005D2634600210B
:103BD00043F8041B9945FBD806F1140202EB870A4F
:103BE00004F11403524503EB850E54D2CDF8049032
:103BF000994652F8043B1FFA83FBBBF1000F20D01B
:103C000000204F466646054600E01E4657F8044B26
:103C10003068A1B283B20BFB0131240C000C4B19AC
:103C20000BFB040000EB134099B2334641EA00411C
:103C3000BE454FEA104543F8041BE6D8756052F8BC
:103C4000043C5FEA134B20D0DCF80030674618468E
:103C50004D46002100E037462C88000C0BFB040089
:103C600001449CB23E4644EA014346F8043B78686E
:103C700055F8044B83B2240C0BFB043404EB1143C2
:103C8000AE454FEA1341E6D87B6092450CF1040C37
:103C9000AFD8DDF80490B8F1000F0BDD59F8043C03
:103CA000A9F104091BB105E059F8043D13B9B8F1B5
:103CB0000108F9D10098C0F8108003B0BDE8F08F7A
:103CC00012F003032DE9F041144607462ED10E46AB
:103CD000A4101CD0BD6C95B3E3074FF0000806D4C8
:103CE000641014D02868A8B10546E307F8D52A4621
:103CF00031463846FFF74CFFB6B17268FB6C641072
:103D000053F82210316043F822600646EAD130466B
:103D1000BDE8F0812A4629463846FFF739FF28607A
:103D2000C0F800800546E0E70646D9E75A1E0B4D6D
:103D3000002355F82220FFF793FE0646C8E701212D
:103D40003846FFF75DFE40F27121012200234161F8
:103D500002610546B8640360BEE700BFD06D000095
:103D60002DE9F04791460A698B684FEA691404EB24
:103D7000020808F101059D420E468246496804DDAD
:103D80005B009D4201F10101FADC5046FFF738FE6D
:103D9000002C00F1140238DD02EB8403002142F80C
:103DA000041B9342FBD1346906F1140119F01F0979
:103DB00001EB840E21D0C9F1200200240F6807FA1C
:103DC00009FC4CEA04049C4643F8044B51F8044BAC
:103DD0008E4524FA02F4F1D8CCF804400CB108F175
:103DE0000205DAF84C307268013D53F82210056183
:103DF000316043F82260BDE8F087043B51F8042BA2
:103E000043F8042F8E45F9D8EBE71346CBE700BF04
:103E100002690B69D21A13D19B0014301431194472
:103E200010B4034401E098420CD253F8044D51F809
:103E3000042D9442F7D009D301205DF8044B70475C
:103E40001046704700205DF8044B70474FF0FF307C
:103E5000F3E700BF2DE9F8430B690F4611695B1AC0
:103E6000002B904617D1890007F1140208F11405C0
:103E70005318294401E09A425ED253F8046D51F878
:103E8000044DA642F7D060D23B46144647464FF059
:103E90000109984606E05DDB07F1140502F1140400
:103EA0004FF000097968FFF7ABFDD8F810303E6994
:103EB000C0F80C9004EB830CA64605EB860700F1D6
:103EC000140400235EF8041B55F8048B8AB213FA1D
:103ED00088F3090C9A1AC1EB184303EB224392B200
:103EE00042EA0342F44544F8042B4FEA2343E9D85D
:103EF000AF4217D9A446294651F804EB13FA8EF2C3
:103F0000131403EB1E4392B242EA03428F424CF871
:103F1000042B4FEA2343EFD8ED433D4425F003053E
:103F200004352C44043C22B954F8043D013E002BD6
:103F3000FAD00661BDE8F8830021FFF761FD012298
:103F4000002302614361BDE8F8832C464FF000096D
:103F50001546A7E73B4607F1140408F11405474648
:103F60004FF0010998469DE72DE9F04357EC106B9F
:103F700083B0884601213C46C7F30A551746FFF730
:103F80003FFDC4F3130481460DB144F48014019441
:103F90001EB302A840F8086DFFF7C2FD002834D117
:103FA0009DE80C00C9F81420002B0CBF0121022150
:103FB000C9F81830C9F81010DDB909EB8103A0F277
:103FC0003240C8F800001869FFF78AFDC0EB4110C5
:103FD0003860484603B0BDE8F08301A8FFF7A0FDB4
:103FE000019BC9F8143001212030C9F81010002DB0
:103FF000E3D0A5F233450544C0F13500C8F80050C0
:104000003860484603B0BDE8F0839DE80C00C0F17D
:10401000200103FA01F10A43C3400193C9F81420B7
:10402000C2E700BF70B515469AB0146809B1002CFC
:104030001AD100244FF42272ADF80C20009404949D
:104040001A464FF6FF761E9B029469460594ADF81A
:104050000E6001F049F8002811DB009B2860002267
:104060001A7004981AB070BD4FF4C16200910491A7
:10407000ADF80C20E4DA8B2303600020F2E7002087
:10408000F0E700BF2DE9F047254C2568D5F84841F9
:104090000646884692469946C4B360681F2817DCD6
:1040A000431C76B104EB80050122C5F888A0D4F842
:1040B000881182401143022EC4F88811C5F8089176
:1040C0001ED00230636044F820800020BDE8F087F5
:1040D000144B03B34FF4C870FEF772FC0446D0B122
:1040E000D5F84831002780E88800C5F848413846AF
:1040F0000123C4F88871C4F88C71002EE1D0D1E797
:10410000D4F88C110A43C4F88C21DAE705F5A674BB
:10411000C5F84841C1E74FF0FF30BDE8F08700BF68
:10412000C86B0000C129000010B502FB01F1FEF7C9
:104130004FFC0446D8B150F8042C22F00302043A94
:10414000242A18D8132A14D900231B2A0360436099
:1041500016D9242A8360C36011BF00F110020361E5
:10416000436100F1180200231360536093602046FE
:1041700010BD0246F7E70021FEF75CFF204610BDA8
:1041800000F10802EFE700BF02690B69934200F3F8
:104190008D802DE9F04F03F1FF3801F1140700F194
:1041A000140B57F828205BF828304FEA880483B0B6
:1041B0000132B3FBF2F90BEB0403009407EB040AA2
:1041C0000193B9F1000F39D00025BC46DE462B46DD
:1041D0005CF8046BDEF80020B4B209FB0455360C21
:1041E0002C0C09FB0644ADB25B1BA6B213FA82F39A
:1041F000C6EB124606EB23469BB243EA0643E24572
:104200004EF8043B4FEA14454FEA2643E0D2009BA8
:104210005BF8033093B9019C231F9B450CD254F8E3
:10422000043C4BB9A4F1080302E01A68043B1AB934
:104230009B4508F1FF38F8D3C0F810800446FFF71B
:10424000E7FD00282EDB09F101095D46002357F840
:10425000041B28688AB29A1A090C12FA80F2C1EB80
:10426000104303EB224391B241EA0341BA4545F8BA
:10427000041B4FEA2343EAD25BF828200BEB8803A8
:1042800082B91A1F93450BD253F8042C42B9083B4C
:1042900002E01A68043B1AB99B4508F1FF38F8D3CD
:1042A000C4F81080484603B0BDE8F08F0020704786
:1042B0002DE9F04F57EC106B9BB0046C249D0091DE
:1042C00081460592039310EE10AABB4654B1426C8E
:1042D000626001239340A3602146FFF7B7FB0023F0
:1042E000C9F84030BBF1000F5C4634DB00232B6083
:1042F000A14B1A462340934216D000220023504679
:104300005946FEF75BF956465F46804648B3039A26
:1043100001231360259B002B00F0BE809748186096
:1043200001381BB0BDE8F08F039A42F20F7313609F
:10433000BAF1000F00F09A809148259B002BF0D035
:10434000C378002B00F0AA8000F10803259A1360BF
:104350001BB0BDE8F08F01232BF000442B60A34677
:10436000C6E718AA19A947EC106B4846FFF7FCFDF1
:10437000250D0A9040F08380189D199E2E4406F268
:104380003243202B40F38882C3F1400306F21240EF
:104390009C402AFA00F02043FDF732FE0123741EF0
:1043A000A1F1F8710F930022764BFDF7EBFC6CA3A3
:1043B000D3E90023FDF79AFE6BA3D3E90023FDF7B1
:1043C000E3FC064620460F46FDF72AFE68A3D3E924
:1043D0000023FDF78BFE02460B4630463946FDF7BB
:1043E000D3FC06460F4602F071FA00220490002327
:1043F00030463946FEF7ECF8002840F02882049E4B
:10440000162E00F22182604B03EBC603D3E90001B4
:1044100052465B46FEF7FAF8002800F04282731E0F
:10442000049300230D932D1BB5F1010800F12A829E
:1044300000230793049B002BC0F21B8298440C932B
:1044400000230693009B092B2AD8052B40F34486B2
:10445000043B00930026009B023B032B00F22386C3
:10446000DFE813F02B03240236035004444B474A81
:10447000C4F31300002814BF184610465DE7CBF3C1
:10448000130343F07F51A5F2FF345046CDF83C8032
:1044900041F44011189D86E73D4842E7C31C55E7AB
:1044A0000021C9F8441048460C460091FFF7A8FACD
:1044B0004FF0FF3308930E9301230990C9F8400091
:1044C00005940B93199B002BC0F2D080049A0E2AFE
:1044D00000F3CC802C4B03EBC20393ED007B059BD8
:1044E000002B8DED007BC0F2FE8256465F46DDE973
:1044F00000AB304652465B463946FDF721FF02F0DD
:10450000E5F90446FDF78CFD52465B46FDF7EEFDEE
:104510000B46024639463046FDF734FC099D04F14E
:1045200030032B70089B012B06460F4605F1010551
:1045300061D00022174BFDF7D9FD0022002306466B
:104540000F46FEF73BF800287DD1CDF81490DDF83A
:1045500020A0DDF824B0DDE9008928E0AFF3008079
:1045600061436F63A787D23FB3C8608B288AC63F79
:10457000FB799F501344D33F0000F07FED6D0000A6
:10458000E86D00000000F83FE06C0000DC6D00000A
:10459000EC6D000000002440FDF7A8FD0022002380
:1045A00006460F46FEF70AF8002840F0AE83424662
:1045B0004B4630463946FDF7C3FE02F087F9044604
:1045C000FDF72EFD42464B46FDF790FD02460B4699
:1045D00030463946FDF7D6FB04F1300E05F801EB05
:1045E000CBEB050ED64506460F464FF00002AE4B0C
:1045F000D2D1DDF8149032463B4630463946FDF7BD
:10460000C3FB06460F4602460B46DDE90001FDF7F7
:10461000DFFF40B932463B46DDE90001FDF7CEFF42
:1046200088B1E3070FD515F8014C099A6B1E04E019
:104630009A4200F0FC8313F8014D392C03F1010577
:10464000F6D001341C700A994846FFF7FFF90022A2
:10465000049B2A70039A01331360259B002B00F002
:104660009B8309981D601BB0BDE8F08F0B9A002A50
:1046700000F00E81009A012A40F35782089B069AA7
:104680005F1EBA42C0F28B83D71B089B002BC0F27F
:104690008084079D089B079A01211A444846079287
:1046A0009844FFF76BFA064665B1B8F1000F09DDD3
:1046B0004545079A2B46A8BF4346D21A0792ED1AE2
:1046C000C3EB0808069B002B40F3F5820B9A002AE7
:1046D00000F00282002F00F0FF8131463A46484642
:1046E000FFF7EEFA0A9A014606464846FFF750FAE7
:1046F0000A9904464846FFF7A9F9069BDB1B069377
:1047000040F0E98101214846FFF738FA0C9B0690FA
:10471000002B00F0158201461A464846FFF7D0FAF2
:10472000009B0690012B40F3F3820027069A136941
:1047300002EB83031869FFF7D3F9C0F1200040446E
:1047400010F01F0000F0FA81C0F12003042B40F3A9
:10475000BD84C0F11C00079B0344079305448044BB
:10476000079B002B05DD21461A464846FFF7F8FA5D
:104770000446B8F1000F05DD424606994846FFF7AA
:10478000EFFA06900D9B002B40F07A82089B002BDD
:1047900040F393820B9B002B40F0F481DDF824B0B2
:1047A000089FDDF818805D4602E0FFF759F90446DE
:1047B00041462046FFF7E8FC00F1300A05F801AB5E
:1047C000CBEB0503BB424FF00A024FF0000321463A
:1047D0004846EADB099B089A012AACBF9B180133C3
:1047E0001D464FF0000B214601224846FFF7B8FA5C
:1047F00006990A90FFF70CFB002840F3058315F893
:10480000012C09996B1E04E08B4200F0748213F8AE
:10481000012D392A03F10105F6D001321A700699EB
:104820004846FFF713F9002E3FF40DAFBBF1000F20
:1048300005D0B34503D059464846FFF707F931463E
:104840004846FFF703F9FEE601230D93EBE5DDF89B
:1048500010804046FDF7E4FB02460B4630463946E1
:10486000FDF7ACFE00287FF4CAAD08F1FF330493D6
:10487000C5E5079A049BD21A5B4206930023079270
:104880000C93DFE5C8F1000307934FF00008D1E572
:10489000069F079D0B9E07E7C3F120040AFA04F068
:1048A0007AE50D90BFE500BF0000244000230B9384
:1048B000049B059A13440E930133002B089340F395
:1048C0007D82089C25460021172DC9F844100BD97C
:1048D000012204235B0003F11400A842114602F1F7
:1048E0000102F7D9C9F844104846FFF789F80E2CA1
:1048F0000990C9F840003FF6E5AD002E3FF4E2AD67
:1049000004990029CDE910AB40F39A82904B01F055
:104910000F020E1103EBC203F006D3E9004540F18C
:1049200046828C4B50465946D3E90823FDF708FDD3
:10493000CDE9120106F00F064FF0030A86B1854F4C
:10494000F10709D520462946D7E90023FDF7CEFB1C
:104950000AF1010A04460D46761007F10807EFD167
:1049600022462B46DDE91201FDF7EAFC06460F461A
:104970000D9B43B10022784B30463946FDF728FEA7
:10498000002840F01A835046FDF74AFB32463B466A
:10499000FDF7ACFB714B0022FDF7F6F9089B0446CE
:1049A000A1F15075002B00F0DB81049B1693089B4E
:1049B00012930B9B002B00F09482129A644B68496F
:1049C00003EBC20353E902230020FDF7B9FC2246A2
:1049D0002B46FDF7D7F982468B463046394601F023
:1049E00075FF0446FDF71CFB02460B463046394670
:1049F000FDF7C8F93034099DE4B206460F462C7025
:104A000002460B46504659460135FDF7FFFD00288A
:104A100050D132463B4600204F49FDF7B3F90246DC
:104A20000B4650465946FDF7F1FD002840F008833B
:104A3000129A012A40F3F781129B099ACDF8488017
:104A4000134498460DE000204349FDF79BF9524678
:104A50005B46FDF7BDFD002840F0F282454500F0C1
:104A6000E0815046594600223E4BFDF73FFB0022B5
:104A70003C4B82468B4630463946FDF737FB0F46A6
:104A8000064601F023FF0446FDF7CAFA02460B462C
:104A900030463946FDF776F93034E4B252465B468B
:104AA00005F8014B06460F46FDF792FD32463B46A0
:104AB0000028C8D0169B0493C5E500230B93059BE3
:104AC000002B40F380811D461C460E930893FAE6A6
:104AD00001230B93F3E70A94069A0A994846FFF7D5
:104AE000EFF804460EE6089B002B3FF7FEAC40F0C3
:104AF0004F8100221C4BDDE90001FDF7F7FA5B4610
:104B00005246FDF779FD089B06931E46002800F0EB
:104B1000EA80059B099DDB43049306994846FEF70E
:104B200095FF002E3FF48FAD89E60F9A002A00F022
:104B3000388203F23343069F079DACE51C200AE64A
:104B4000009B012B40F380820C9F0120F7E500BF02
:104B5000E06C0000A86D00000000F03F00001C4069
:104B60000000E03F000024400000144031460023D4
:104B70000A224846FEF774FF0E9B002B064640F3C0
:104B80008D820893002D05DD31462A464846FFF701
:104B9000E7F80646002F40F07C81B046089B099A52
:104BA000013BD31808930AF001030A931746DDF876
:104BB00018B020465946FFF7E7FA31460546204629
:104BC000FFF726F94246594682464846FFF742F922
:104BD000C268834605F13003002A49D101462046C8
:104BE0000793FFF715F9594605904846FEF72EFF43
:104BF000059A079B2AB9009919B90A99002900F06A
:104C00003582BAF1000FC0F2E38005D1009919B9DD
:104C10000A99002900F0DC80002A00F34E81089AEE
:104C20003B7007F1010A9742554600F05281214638
:104C300000230A224846FEF713FF46450446314644
:104C40004FF000034FF00A0248460BD0FEF708FF72
:104C50004146064600230A224846FEF701FF574612
:104C60008046A4E7FEF7FCFE5746064680469EE7D0
:104C7000014648460593FEF7E9FE0122059BC0E781
:104C800006992046FFF7C4F80028BFF67FAD2146FD
:104C9000049C0023013C0A2248460494FEF7E0FEEF
:104CA0000B9B0446002B7FF461AF0E9B002B40F35F
:104CB000ED81089372E50A9C24E5009B022B7FF7A7
:104CC00069AD089B002B40F09D810699052248465E
:104CD000FEF7C6FE014606902046FFF799F8002829
:104CE0000A947FF716AF049A09993123013204928E
:104CF0000B704D1C11E7049A01320492099A31237A
:104D000013708CE501230B93D2E5DDF814909AE43F
:104D1000BAF1000F7FF409ADCBF31303002B40F081
:104D20003E812BF000473F0D3F052FB1079B01331C
:104D3000079308F1010801270C9B0120002B3FF489
:104D4000FEACF3E45046FDF76BF932463B46FDF707
:104D5000CDF90022BF4BFDF717F80446A1F15075BD
:104D6000304639460022BC4BFDF70CF822462B4654
:104D700006460F46FDF74AFC002840F0AE8022466A
:104D800005F1004330463946FDF722FC00284AD0A1
:104D9000002306931E46BCE60998FFF7C2BA069B9D
:104DA0000C9A0697FB1A1A440C9200276DE49DEDAD
:104DB000107B4FF0020A8DED127BBFE51C460021EF
:104DC000C9F8441090E501240E9408940594F6E780
:104DD000002A9A4611DD214601224846FEF7C0FF0F
:104DE00006990446FFF714F8002840F34881BAF109
:104DF000390F00F0098105F1310AB34687F800A0A8
:104E00007D1C46460A940AE504D11AF0010F01D030
:104E1000F5E4154615F8013C302B05F1FF32F8D0CA
:104E2000FDE4DDF84880DDE910ABFFF74BBB0999E5
:104E300030220A70049A15F8014C0132049200E401
:104E4000049B5C42002C00F0B380844B04F00F0202
:104E500003EBC203D3E90023DDE91001FDF746F9B6
:104E6000241106460F4600F016817D4D4FF0020AD0
:104E7000E20709D530463946D5E90023FDF736F972
:104E80000AF1010A06460F46641005F10805EFD144
:104E90006EE571684846FEF7B3FD33699A1C054616
:104EA000920006F10C010C30FBF772FC294601223E
:104EB0004846FEF755FF804670E6392B00F0A48087
:104EC00003F1010AB34687F800A07D1C46460A9408
:104ED000A5E4B3469A46464685E4002306931E465B
:104EE00001E7129B5D495A1E01EBC2012B46179246
:104EF000D1E900012246FDF7F9F8CDE91401394660
:104F0000304601F0E3FC0446FDF78AF80B46024602
:104F100039463046FCF736FF129B0F46099930346C
:104F2000012B06460C7001F1010520D0129B099A55
:104F300013449A46AB4600224A4B30463946FDF7A9
:104F4000D5F80F46064601F0C1FC0446FDF768F8A7
:104F5000303402460B4630463946FCF713FF0BF857
:104F6000014BDA4506460F46E5D1179B1D4400224A
:104F70003D4BDDE91401FCF707FF32463B46FDF7E8
:104F800027FB002848D0169B049315F8014CFFF727
:104F90004CBB079B089A9D1A0023FFF77CBB002798
:104FA000CAE6189B069F079DC3F13603FFF773BB44
:104FB000DDE910674FF0020ADAE4089B002B3FF4AA
:104FC000C1AE0E9B002B7FF72EAF0022254B304643
:104FD0003946FDF78BF806460F460AF10100FDF74A
:104FE0001FF832463B46FDF781F80022194BFCF7CB
:104FF000CBFE049A0E9B1293013A0446A1F1507520
:105000001692D6E40A9484E53922B3460A944646B9
:105010003A707D1CFFF7F5BBDDE91423002012492F
:10502000FCF7B0FE32463B46FDF7F0FA08B9FAE667
:10503000154615F8013C302B05F1FF32F8D039E563
:10504000169B0493FFF7F1BABAF1000F7FF47CAD21
:1050500062E600BF00001C4000001440E06C00004D
:10506000A86D0000000024400000E03F392BD3462B
:105070009A46C9D0BBF1000F3FF7BDAEBDE67FF445
:10508000BCAE1AF0010F3FF4B8AEB0E6009B022BA5
:1050900025DC0E9B0DE64FF0020A69E4009B022B13
:1050A0001DDC0E9B6DE50024C9F8444021464846AE
:1050B000FEF7A6FC4FF0FF3308930E9301230990EF
:1050C0000594C9F840000B93FFF7FCB93FF448ABD7
:1050D000C0F13C00FFF73FBB0126FFF7BCB90E9BB8
:1050E0000893EEE5FFFFFFFF2DE9F04FC1B00C463E
:1050F000059115460A930690FEF720FC036813936A
:105100001846FEF7FDF9A38912901E0603D5236900
:10511000002B01F031819FEDA67B00238DED107BEC
:105120000E932593249315930793DFF890A230AB49
:1051300023939946A84698F800304446EBB1252BB6
:1051400002D11AE0252B03D014F8013F002BF9D12E
:10515000C8EB04058DB1249B259AC9F80080013362
:105160002A44072BC9F804502592249300F3A68003
:1051700009F10809079B2B4407932378002B00F0C3
:10518000A68000231A468DF86F30194608930393C2
:105190004FF0FF3B637804F101085D4608F1010818
:1051A000A3F12000582800F23484DFE810F0A003B7
:1051B00032043204A80332043204320432043204CA
:1051C0003204AF03BD0332045D00E2003204090182
:1051D0001001100110011001100110011001100147
:1051E0001001320432043204320432043204320434
:1051F0003204320432042001860232048602320470
:10520000320432043204D40232043204E50232049D
:1052100032043204320432040F03320432043D03F8
:1052200032043204320432043204320432043204CE
:10523000320432047E0391038602860286029903B9
:10524000910332043204070432041204A300640000
:10525000C2033204C9033204EA0332043204F20303
:1052600008980A9340420890039B43F00403039379
:1052700098F8003092E70A98AB46002104688DF850
:105280006F10071D0398302378228B458DF87030FE
:105290004FF000058DF8712040F00203C0F2D68374
:1052A00020F0800343F00203039354EA05030A97B6
:1052B00000F0A2830F460D923F48E6E223AA05992B
:1052C000069801F083FA48B90DF1C00952E7259B11
:1052D00023B10698059923AA01F078FA059B9B89CA
:1052E00013F0400F079B18BF4FF0FF33184641B033
:1052F000BDE8F08F0D93AB46002A41F03382039A4C
:1053000012F0200300F046820A9F073727F00703B8
:10531000002703F10801BB450A91D3E900458DF848
:105320006F70C0F2628722F08003039354EA050392
:1053300000F0848330AEE20842EA4572E90804F0E6
:1053400007030D461446303354EA050206F8013DC2
:10535000F1D1039AD10740F18F80302B00F08C807F
:105360003022731E06F8012C30AAD21A09921E466A
:1053700085E098F800302A2B08F1010401F0E4815F
:10538000A3F13000092898BF002501F2868114F8A6
:10539000013B05EB850500EB4505A3F1300009282D
:1053A000F5D945EAE575A046FAE600BFAFF30080FF
:1053B0000000000000000000246E0000F06D0000FE
:1053C000039B43F08003039398F80030E6E6A3F1D3
:1053D000300000231C4618F8013B04EB840400EB6A
:1053E0004404A3F130000928F5D90894D8E60D93B8
:1053F000AB46002A41F0C481039B43F010030393A2
:10540000039B9C0640F137850A9F073727F0070763
:10541000D7E9002307F108010A9114461D46002A26
:1054200073F10003C0F26285BBF1000F9DF86F704D
:10543000C0F23F85039B23F08003039354EA0503E6
:1054400000F0E881002D08BF0A2CC0F0E88130AEE2
:10545000204629460A220023FDF7F8F8303206F8E4
:10546000012D2046294600230A22FDF7EFF80446C5
:105470000D4654EA0503EBD130AB9B1B0993099B06
:105480005B45B8BF5B46049300230F9317B1049BA1
:1054900001330493039B13F002030B9302D0049B8C
:1054A00002330493039B13F084030C9340F0DB82DC
:1054B000089B049A9D1A002D40F3D582102D259942
:1054C000249AA84F27DD149648461024B946059E15
:1054D0002F46069D04E0103F102F00F1080016DD56
:1054E0000132A04B24921031072A259180E8180040
:1054F000F1DD23AA3146284601F068F900287FF43F
:10550000EDAE103F102F2599249A30A8E8DC149EA8
:105510003D464F46814601326C18072A2594249255
:10552000C9F80070C9F8045000F32D849DF86F701D
:1055300009F1080977B1249B013301340DF16F01A2
:105540000122072B2594249389E8060000F3A58304
:1055500009F108090B9B6BB1249B013302341CA990
:105560000222072B2594249389E8060000F3A183E7
:1055700009F108090C9B802B00F0E182099BC3EB29
:105580000B07002F33DD784A249B0B92102F22DD6E
:1055900022464FF0100B069D059C04E0103F102F93
:1055A00009F1080916DD01331032072B25922493E7
:1055B00089E8000CF2DD23AA2146284601F006F90D
:1055C00000287FF48BAE103F102F259A249B0DF1FD
:1055D000C009E8DC144601330B9A24933C44072BA2
:1055E000259489E8840000F34C8309F10809039BA2
:1055F000DA0500F13A82249B0999C9F80060013369
:105600000C44072B2594C9F80410249300F323833A
:1056100009F10809039B59073FD5089B049A9D1A75
:10562000002D3ADD102D249B4E4F23DD22461026FF
:10563000DDF818B0059C04E0103D102D09F10809B3
:1056400017DD0133474924931032072B259289E84F
:105650004200F1DD23AA2146584601F0B7F80028A0
:105660007FF43CAE103D102D259A249B0DF1C0090E
:10567000E7DC144601332C44072B25942493C9F806
:105680000070C9F8045008DD23AA0599069801F0B6
:105690009DF800287FF422AE259C079B089A049968
:1056A0008A42ACBF9B185B180793002C40F0DF8246
:1056B000002324930DF1C0093DE50D93AB46002A6C
:1056C00041F06280039B0A9F1A0707F1070740F128
:1056D000748527F0070393ED007B8DED107B03F1BC
:1056E00008020A92DDE9101222F000431691179386
:1056F000DDE916454FF0FF32204629461B4BFCF7EB
:105700008FFF002840F0DA844FF0FF32174B20461D
:105710002946FCF767FF002840F0D08400220023D0
:10572000DDE91001FCF754FF002840F052879DF896
:105730006F700F4E0F4B039921F0800103910D996B
:1057400003224FF0000B04924729D8BF1E4609924E
:10575000CDF83CB09AE6039B43F00803039398F816
:1057600000301BE5406E0000F06D0000FFFFEF7F92
:10577000046E0000006E00000D93AB46002A41F05D
:105780000F80039B43F010030393039A12F020034E
:105790007FF4BAAD039911F0100200F05B840A980F
:1057A0008DF86F30BBF1000F046800F104074FF073
:1057B0000005C0F219850A4622F08002039254EADD
:1057C00005020A9700F03A811F46B3E50D93AB46F8
:1057D000002A40F0E187039B43F010030393039AF0
:1057E00012F0200300F02C830A9F073727F00703ED
:1057F000002703F10801BB450A91D3E900458DF864
:105800006F70C0F2568322F08003039354EA0503BD
:105810007FF418AEBBF1000F00F0F580002440AE1D
:10582000303406F8414D27E60D93AB46002A40F090
:10583000AF87039BAF489D0640F1B5800A9F0737AD
:1058400027F00703D3E9004503F108020A92039AFF
:1058500012F0010700F0398254EA050300F00285D6
:105860009DF834208DF871200027039A8DF86F7011
:105870003023BB458DF8703042F00203C0F2AE8693
:1058800022F0800343F00203039330AE230904F0B7
:105890000F0143EA05732A091C461546435C06F8C6
:1058A000013D54EA0503F1D1E6E50A990D930A6832
:1058B0008DF8982000230A461F468DF86F30043279
:1058C00001230493BB460F970A92099326AEE1E5A4
:1058D0000D93AB46002A3FF493AD8DF86F108FE522
:1058E000039B43F04003039398F8003056E498F884
:1058F000003000297FF452AC012220214EE4039BAA
:1059000043F00103039398F8003047E40A9C2368AE
:10591000089318460028234603F10403FFF6A0ACC1
:105920000A9398F8003039E498F8003001222B21CE
:1059300034E4039B43F02003039398F800302DE4F4
:105940000A9A0D93166800248DF86F40171D002EDB
:1059500000F01C86002DC0F261852A4621463046A3
:10596000FDF7FEFF002800F06386831B0993A34622
:1059700023EAE3730A970493CDF83CB09DF86F7067
:1059800084E50D93AB46002A3FF429AF8DF86F10E4
:1059900025E70D93AB46002A40F00E87039B56483F
:1059A0009D063FF54BAF039BDC0640F13E840A9A0F
:1059B0001346043314680A93002548E798F800302A
:1059C0006C2B00F0C284039840F010000390FFF7A6
:1059D000E5BB002A40F0EC86039B9B0640F1578311
:1059E0000A9A07991368CD170846043229460A9285
:1059F000C3E90001FFF79FBB3F480D92BBF1000FC9
:105A000040F074815F464FF0000BCDF824B030AE0B
:105A100035E50D93002A40F0C7860D9A002A3FF421
:105A200056AC002301211F4604918DF898208DF873
:105A30006F309B460F93099126AE2BE5BBF1000F0B
:105A400000F00E8600270024002573E42A48039303
:105A50000D9254EA05030A974FF000077FF415AF43
:105A60000024002511E7259C64E50D9B652B40F380
:105A7000AA8000220023DDE91001FCF79FFD002829
:105A800000F03681249B1D4AC9F8002001330134FF
:105A90000122072B25942493C9F8042000F3EE83F8
:105AA00009F108091D9B0E9A934203DB039BDB0758
:105AB0007FF5B0AD249B1299139AC9F800200133E9
:105AC0000C44072B2594C9F80410249300F3478451
:105AD00009F108090E9B5D1E002D7FF79BAD084A5A
